:100000000C9462000C948A000C948A000C948A0070
:100010000C948A000C948A000C948A000C941B07A0
:100020000C948A000C948A000C948A000C945F064D
:100030000C948A000C948A000C948A000C948A0018
:100040000C94BD050C948A000C942D060C940706A4
:100050000C948A000C948A000C948A000C948A00F8
:100060000C948A000C948A00000000080002010031
:100070000003040700000000000000000000000072
:10008000240027002A000000000023002600290089
:1000900000000000250028002B00040404040404D0
:1000A0000404020202020202030303030303010227
:1000B00004081020408001020408102001020408F6
:1000C0001020400711241FBECFEFD8E0DEBFCDBF08
:1000D00011E0A0E0B1E0EEE2F8E102C005900D927F
:1000E000AE36B107D9F722E0AEE6B1E001C01D920D
:1000F000A637B207E1F710E0C2E6D0E004C02197CE
:10010000FE010E940F0CC136D107C9F70E942808D2
:100110000C94150C0C940000CF93DF93DC01862F18
:1001200090E0FC01E255FF4F549114965C931497B4
:10013000242F30E0F901E255FF4FE4911596EC933E
:10014000159786569F4FFC017491E72FF0E0EE0F54
:10015000FF1FE057FF4FC591D4911796DC93CE93C4
:100160001697F901E656FF4FE491F0E0EE0FFF1FFE
:10017000EA57FF4F2591349119963C932E93189787
:10018000FC018491E82FF0E0EE0FFF1FE458FF4FD1
:10019000C591D4911B96DC93CE931A9781E064139A
:1001A00080E052968C93529781EC9CE21D969C9332
:1001B0008E931C97E8815E2B58831696ED91FC91E7
:1001C0001797908114968C91809589238083DF9175
:1001D000CF910895833081F028F4813099F08230F6
:1001E000A9F008958730A9F08830C9F08430B1F4BF
:1001F000809180008F7D03C0809180008F778093F5
:100200008000089584B58F7784BD089584B58F7D6F
:10021000FBCF8091B0008F778093B00008958091DC
:10022000B0008F7DF9CF1F93CF93DF93282F30E05D
:10023000F901E859FF4F8491F901E255FF4FD4913C
:10024000F901E656FF4FC491CC23A9F0162F811176
:100250000E94EA00EC2FF0E0EE0FFF1FE057FF4F87
:10026000A591B4918FB7F894EC91111108C0D09575
:10027000DE23DC938FBFDF91CF911F910895DE2B9A
:10028000F8CFCF93DF9360E08CE00E94130160E031
:1002900088E00E941301C7E0D0E060E084E00E94A3
:1002A00013018091400290E00C2E02C09595879535
:1002B0000A94E2F761E080FF60E088E00E941301A9
:1002C00061E084E00E941301219738F761E08CE03F
:1002D000DF91CF910C941301CF93DF9390E0FC0159
:1002E000E255FF4F249186569F4FFC01849188234D
:1002F000D1F090E0880F991FFC01E458FF4FA591C1
:10030000B491FC01E057FF4FC591D49161110EC02B
:100310009FB7F8948C91E22FE0958E238C932881DF
:10032000E223E8839FBFDF91CF9108958FB7F894C0
:10033000EC91E22BEC938FBFF6CF61E08CE00E9452
:100340006C0161E087E00E946C0161E088E00E943E
:100350006C0161E084E00E946C01109240020E94F6
:10036000410160E087E00C9413013FB7F89480915D
:100370007A0190917B01A0917C01B0917D0126B51D
:10038000A89B05C02F3F19F00196A11DB11D3FBFCD
:10039000BA2FA92F982F8827BC01CD01620F711D9C
:1003A000811D911D42E0660F771F881F991F4A9596
:1003B000D1F708958F929F92AF92BF92CF92DF9222
:1003C000EF92FF924B015C010E94B5016B017C0131
:1003D0000E94B5016C197D098E099F09683E734022
:1003E00081059105A8F321E0821A9108A108B108BE
:1003F00088EEC80E83E0D81EE11CF11C8114910424
:10040000A104B10429F7FF90EF90DF90CF90BF9047
:10041000AF909F908F900895AF92BF92CF92DF924E
:10042000EF92FF920F931F93CF93DF936C017B01A9
:100430008B01040F151FEB015E01AE18BF08C0173A
:10044000D10759F06991D601ED91FC910190F081AD
:10045000E02DC6010995892B79F7C501DF91CF9170
:100460001F910F91FF90EF90DF90CF90BF90AF90D2
:100470000895FC01538D448D252F30E0842F90E0AA
:10048000821B930B541710F0CF960895019708958F
:10049000FC01918D828D981761F0A28DAE0FBF2F58
:1004A000B11D5D968C91928D9F5F9F73928F90E0AE
:1004B00008958FEF9FEF0895FC01918D828D98171D
:1004C00031F0828DE80FF11D858D90E008958FEF5A
:1004D0009FEF0895FC01918D228D892F90E0805C23
:1004E0009F4F821B91098F73992708958EE791E0A2
:1004F0000E946A0221E0892B09F420E0822F0895EE
:1005000080E090E0892B29F00E94760281110C9402
:1005100000000895FC01A48DA80FB92FB11DA35AA6
:10052000BF4F2C91848D90E001968F739927848F13
:10053000A689B7892C93A089B1898C918370806436
:100540008C93938D848D981306C00288F389E02DD7
:1005500080818F7D80830895EF92FF920F931F9388
:10056000CF93DF93EC0181E0888F9B8D8C8D981366
:100570001AC0E889F989808185FF15C09FB7F89472
:10058000EE89FF896083E889F989808183708064BE
:1005900080839FBF81E090E0DF91CF911F910F9109
:1005A000FF90EF900895F62E0B8D10E00F5F1F4F18
:1005B0000F731127E02E8C8D8E110CC00FB607FC27
:1005C000FACFE889F989808185FFF5CFCE010E94B5
:1005D0008A02F1CFEB8DEC0FFD2FF11DE35AFF4F97
:1005E000F0829FB7F8940B8FEA89FB898081806243
:1005F000CFCFCF93DF93EC01888D8823B9F0AA8900
:10060000BB89E889F9898C9185FD03C0808186FDCD
:100610000DC00FB607FCF7CF8C9185FFF2CF80811C
:1006200085FFEDCFCE010E948A02E9CFDF91CF9105
:100630000895CF92DF92EF92FF92CF93DF93EC0178
:10064000603282E07807CCF5653B710514F064EB0D
:1006500070E0898128E830E0281B310987FD339557
:10066000220F331F220F331F6901330FEE08FF08DB
:100670008A8128E532E0281B310987FD3395220F56
:10068000331F220F331F032E000C440B550B2C1964
:100690003D094E095F09DB0177FF02C0B0E0A0E031
:1006A0000E94A20B24EB30E040E050E00E94780B67
:1006B000C20ED31EE41EF51EB601E881EC3070F5C3
:1006C000298188E890E0821B910927FD9395880F86
:1006D000991F880F991F681779077CF02A8188E590
:1006E00092E0821B910927FD9395880F991F880F2F
:1006F000991F681779070CF4CB010297880F991F8F
:100700004FB7F8942E2F30E0F901EE0FFF1FE20FE4
:10071000F31FE55EFD4F928381834FBFDF91CF9141
:10072000FF90EF90DF90CF9008951F93CF93DF93CA
:10073000EC01162F88818C3008F04EC061E0812FCB
:100740000E946C018881282F30E0F901EE0FFF1F15
:10075000E20FF31FE55EFD4F1F736081607C612B2C
:10076000608319821A822CE0622F0E94DB0B829F29
:10077000B001112430E020E0AB01420F531FFA0119
:10078000EE0FFF1FE40FF51FE55EFD4F908196FD14
:1007900016C02F5F3F4F2C30310571F781110FC00C
:1007A0001092800082E08093810010928500109268
:1007B0008400B19A80916F00826080936F00E8811D
:1007C0008E2F90E0FC01EE0FFF1FE80FF91FE55E92
:1007D000FD4F8081806480838881DF91CF911F915C
:1007E0000895FC018081823061F018F4813031F08D
:1007F0000895833049F0843049F008956093B30040
:1008000008956093B400089567BD089568BD089584
:10081000FC018081823069F028F423E092E081308D
:1008200051F00895833011F126E090E0843019F002
:10083000089524E091E06230E1F0643079F16130B4
:1008400009F03FC041E050E0BA0101C0660F9A953F
:10085000EAF780914002862B01C0440F2A95EAF7FF
:1008600040954823409340020C94410127E095E0D5
:10087000E2CF41E050E0BA0102C0660F771F9A95BF
:10088000E2F7CB01809590914002892301C0440F8B
:100890002A95EAF7842B80934002E6CF41E050E0AE
:1008A000FA0102C0EE0FFF1F9A95E2F7CF0101C0D7
:1008B000440F2A95EAF7842B809590914002892372
:1008C000EACF089561E082E00E94130168EC70E0D5
:1008D00080E090E00E94DA0160E082E00E94130173
:1008E00060E570E080E090E00E94DA0161E082E083
:1008F0000E9413016CE271E080E090E00E94DA0156
:1009000060E082E00C94130164E082E792E00E94D0
:10091000080464E084E792E00E94080464E080E751
:1009200092E00E94080464E08EE692E00C940804D1
:10093000CF93C82F8093000190930101682F82E725
:1009400092E00E94F1036C2F84E792E00E94F10391
:100950006C2F80E792E00E94F1036C2F8EE692E00C
:10096000CF910C94F10380910001909101010E94BC
:10097000980461E082E792E00E94080462E084E764
:1009800092E00E94080461E080E792E00E9408047F
:1009900062E08EE692E00C94080480910001909150
:1009A00001010E94980462E082E792E00E9408043C
:1009B00061E084E792E00E94080462E080E792E050
:1009C0000E94080461E08EE692E00C940804809195
:1009D0000001909101010E94980462E082E792E098
:1009E0000E94080462E084E792E00E94080462E04A
:1009F00080E792E00E94080462E08EE692E00C94A8
:100A0000080480910001909101010E94980461E026
:100A100082E792E00E94080461E084E792E00E948D
:100A2000080461E080E792E00E94080461E08EE63D
:100A300092E00C9408040F931F93CF93DF93EC0183
:100A4000EA85FB8580819C81892B8083EE81FF81F3
:100A500080819C81892B80838BE290E00197F1F764
:100A6000EE81FF8190818C818095892380838A89A2
:100A7000882339F0EA85FB8590818C8180958923D4
:100A80008083E885F98580819D81892339F090E014
:100A900080E0DF91CF911F910F9108950E94B501E1
:100AA000AB01BC018C859D85B0E0A0E08855994ED6
:100AB000AF4FBF4F840F951FA61FB71F8E879F870D
:100AC000A88BB98BE885F98580819D81892361F4A4
:100AD0000E94B5010E851F852889398906171707D9
:100AE0002807390778F7D3CF0E94B5012C853D85BB
:100AF000620F731F811D911D6E877F87888B998B75
:100B0000E885F98580819D81892361F00E94B50186
:100B10000E851F8528893989061717072807390781
:100B200078F7B5CF0E94B5012C853D85A9014550C8
:100B300051092E853F85FA01E21BF30BCF01860F89
:100B4000971FA7CFFC0101900020E9F73197AF0173
:100B5000481B590BBC018EE791E00C940C02CF931B
:100B6000DF930E94A205EC018EE191E00E94A205B4
:100B70008C0F9D1FDF91CF9108951F920F920FB69A
:100B80000F9211242F933F938F939F93AF93BF9313
:100B90008091760190917701A0917801B0917901CF
:100BA0003091750123E0230F2D3758F50196A11DD3
:100BB000B11D209375018093760190937701A093E6
:100BC0007801B093790180917A0190917B01A09195
:100BD0007C01B0917D010196A11DB11D80937A0128
:100BE00090937B01A0937C01B0937D01BF91AF9165
:100BF0009F918F913F912F910F900FBE0F901F905B
:100C0000189526E8230F0296A11DB11DD2CF1F9281
:100C10000F920FB60F9211242F933F934F935F9330
:100C20006F937F938F939F93AF93BF93EF93FF93B4
:100C30008EE791E00E948A02FF91EF91BF91AF9100
:100C40009F918F917F916F915F914F913F912F91E4
:100C50000F900FBE0F901F9018951F920F920FB616
:100C60000F9211242F938F939F93EF93FF93E09113
:100C70008E01F0918F018081E0919401F0919501B6
:100C800082FD1BC09081809197018F5F8F732091AF
:100C90009801821741F0E0919701F0E0E258FE4F91
:100CA000958F80939701FF91EF919F918F912F9155
:100CB0000F900FBE0F901F9018958081F4CF1F9258
:100CC0000F920FB60F9211242F933F934F935F9380
:100CD0006F937F938F939F93AF93BF93CF93DF9344
:100CE000EF93FF9380917201C0913F02D0E087FFA4
:100CF00024C01092850010928400809172018F5F51
:100D00008093720180917201082E000C990B8C1750
:100D10009D0724F4809172018C30C4F1809184008D
:100D200090918500049680349C4908F47AC08091A3
:100D3000840090918500049676C080917201082EFF
:100D4000000C990B8C179D07C4F6E09172018E2F51
:100D5000EE0F990BFC01EE0FFF1FE80FF91FE55E88
:100D6000FD4F808186FFC9CFE09172018E2FEE0F7B
:100D7000990BFC01EE0FFF1FE80FF91FE55EFD4F19
:100D8000808160E08F730E941301B7CF20918400AF
:100D900030918500E09172018E2FEE0F990BFC01CE
:100DA000EE0FFF1FE80FF91FE55EFD4F8181928175
:100DB000820F931F9093890080938800E0917201C5
:100DC0008E2FEE0F990BFC01EE0FFF1FE80FF91F9E
:100DD000E55EFD4F808186FF11C0E09172018E2F8C
:100DE000EE0F990BFC01EE0FFF1FE80FF91FE55EF8
:100DF000FD4F808161E08F730E941301FF91EF919D
:100E0000DF91CF91BF91AF919F918F917F916F9122
:100E10005F914F913F912F910F900FBE0F901F90B8
:100E2000189580E49CE990938900809388008FEF67
:100E300080937201E3CF1F920F920FB60F9211248D
:100E40002F933F934F935F936F937F938F939F93D2
:100E5000AF93BF93EF93FF93F0E0E0E00995FF912C
:100E6000EF91BF91AF919F918F917F916F915F9122
:100E70004F913F912F910F900FBE0F901F9018959B
:100E8000CF93109281011092800188EE93E0A0E050
:100E9000B0E08093820190938301A0938401B0938A
:100EA000850180E191E090937F0180937E0185EC44
:100EB00090E090938B0180938A0184EC90E0909372
:100EC0008D0180938C0180EC90E090938F01809352
:100ED0008E0181EC90E0909391018093900182ECDF
:100EE00090E0909393018093920186EC90E0909330
:100EF000950180939401109297011092980110929D
:100F0000990110929A011092410281E0809374023B
:100F1000C2E0C09375020E949D0180914002837FD0
:100F2000809340020E9441018091B00083688093C9
:100F3000B000C093B1001092B30061E08BE00E945A
:100F40006C01C0937202C09373020E949D01809154
:100F500040028D7E809340020E9441018091B0004A
:100F600083628093B000C093B1001092B40061E03E
:100F700083E00E946C0183E080937002C093710251
:100F80000E949D01809140028F75809340020E94D3
:100F9000410184B5836884BD17BC61E086E00E948E
:100FA0006C0184E080936E02C0936F020E949D01E9
:100FB000809140028E7B809340020E94410184B563
:100FC000836284BD18BC61E085E00E946C01809161
:100FD0003F028C30A8F591E0980F90933F028093E8
:100FE0006B0290E0FC01EE0FFF1FE80FF91FE55EBA
:100FF000FD4F88EB9BE09283818380913F028C3090
:1010000018F591E0980F90933F028093680290E06A
:10101000FC01EE0FFF1FE80FF91FE55EFD4F88EBA7
:101020009BE09283818340E161E185E592E00E944B
:101030008C004EE06FE082E492E0CF910C948C0043
:101040008FEF80936B02D9CF8FEF80936802EBCF45
:10105000789484B5826084BD84B5816084BD85B593
:10106000826085BD85B5816085BD80916E0081609F
:1010700080936E0010928100809181008260809345
:101080008100809181008160809381008091800047
:101090008160809380008091B10084608093B10072
:1010A0008091B00081608093B00080917A0084606C
:1010B00080937A0080917A00826080937A00809198
:1010C0007A00816080937A0080917A0080688093B2
:1010D0007A001092C100E0918E01F0918F0182E0C0
:1010E0008083E0918A01F0918B011082E0918C0164
:1010F000F0918D018FEC808310929601E091920126
:10110000F091930186E08083E0919001F09191014C
:10111000808180618083E0919001F09191018081D4
:1011200088608083E0919001F091910180818068D6
:101130008083E0919001F091910180818F7D808387
:1011400061E082E00E946C0161E083E10E946C0139
:1011500061E08DE00E946C0160E082E10E946C0120
:101160000E948404C09100016C2F82E792E00E94EB
:10117000F1036C2F84E792E00E94F1036C2F80E76B
:1011800092E00E94F1036C2F8EE692E00E94F10340
:1011900069E070E08BE692E00E9495036AE070E0FF
:1011A00088E692E00E949503D0E0C0E004EB10E0F6
:1011B000BE018BE692E00E941903B8016C1B7D0B07
:1011C00088E692E00E9419036EE170E080E090E012
:1011D0000E94DA012196CB35D10551F78AE590E0DE
:1011E0009093050180930401909303018093020181
:1011F0008BE291E00E94AF0523E0E22EF12C38EC67
:10120000432E512C612C712C49E3842E912CA12C5E
:10121000B12C22242394312C94EBC92ED12C8EE7AF
:1012200091E00E946A02892BB1F08EE791E00E9462
:101230004802893409F4CFC00CF05EC0843309F44D
:10124000FFC00CF033C0823309F4F4C00CF0F5C0D9
:10125000813309F4EAC0EAE7F0E08491E0ECF0E0E1
:10126000C491ECEAF0E0D491DD2309F486C1811148
:101270000E94EA00ED2FF0E0EE0FFF1FEA57FF4F4C
:10128000A591B4919C9180917401C92309F475C111
:10129000882309F495C11092740160E08DE00E94EA
:1012A000130189E591E00E94AF058AC1863409F4F3
:1012B00051C064F4823409F0CECF0E94E7048091DB
:1012C000730181112FC10E94E704C5CF873409F44F
:1012D0005CC0883409F0BFCF80910001909101017A
:1012E000B7010E94E70BC62F84E792E00E94F1034A
:1012F0006C2F8EE692E058C0833509F48EC0BCF4A2
:101300008C3489F18235C1F18A3409F0A4CF8091FF
:10131000000190910101B7010E94E70BC62F84E7FD
:1013200092E00E94F1036C2F8EE692E063C0883554
:1013300009F489C044F461E0853509F08CCF83E17C
:101340000E94130188CF893509F46CC060E08537AD
:10135000B1F381CF0E9401058091730181118BC08F
:101360000E94010578CF0E94CD0480917301811104
:1013700072CF0E94CD046FCF0E94B304809173019D
:10138000811169CF0E94B30466CF809100019091D2
:101390000101B7010E94E70BC62F82E792E00E948D
:1013A000F1036C2F80E792E00E94F10361E082E795
:1013B00092E00E94080461E084E792E00E94080441
:1013C00061E080E792E00E94080461E08EE692E02E
:1013D0000E94080440CF8091000190910101B70163
:1013E0000E94E70BC62F82E792E00E94F1036C2F68
:1013F00080E792E00E94F10362E082E792E00E94BF
:10140000080462E084E792E00E94080462E080E75A
:1014100092E00E94080462E0D9CF0E9484040E94F6
:10142000840419CF0E94620416CF81E490E00E94E8
:10143000980411CF82E890E0FACF83EC90E0F7CFE8
:101440008FEF90E0F4CF8091730191E08927809332
:1014500073010E94840481E491E00E94A2058091BE
:101460007301882329F081E291E00E94AF05F3CE59
:1014700087E291E0FACF809104019091050118165E
:1014800019067CF4059797FD1CC090930501809385
:10149000040160910401709105018BE692E00E94C5
:1014A00019038091020190910301843B9105D4F4CA
:1014B0000596853B910554F49093030180930201B6
:1014C00009C01092050110920401E3CFD0920301EC
:1014D000C0920201609102017091030188E692E0DE
:1014E0000E9419038091040190910501C7978734E8
:1014F000910540F08091020190910301C7978734D4
:10150000910558F4109207011092060162E370E011
:1015100080E090E00E94DA019ECE30920701209296
:101520000601F4CF8091040190910501843B91055F
:1015300084F40596853B9105DCF490930501809336
:10154000040160910401709105018BE692E00E9414
:10155000190380910201909103011816190614F6DF
:10156000059797FFA9CF1092030110920201B2CF05
:10157000D0920501C0920401E4CF809174018111E1
:101580000BC0F1E0F09374010E94840488E491E0C0
:101590000E94AF050E9462042FB7F8946091760113
:1015A0007091770180917801909179012FBFA3010B
:1015B00092010E94AA0B622F61708DE00E941301BC
:1015C00080917401811187C085E592E00E941B051E
:1015D000BC0190E080E0A50194010E94AA0B890162
:1015E000232B11F40AEF10E010930B0100930A0172
:1015F00082E492E00E941B05BC0190E080E0A5011E
:1016000094010E94AA0BE901209711F4CAEFD0E0DF
:10161000D0930901C09308010531110554F50E94CA
:10162000840461E08DE00E94130161E083E10E9487
:1016300013010E94620468EC70E080E090E00E9478
:10164000DA010E94E7046CE271E080E090E00E9421
:10165000DA010E94840468EC70E080E090E00E946F
:10166000DA0160E083E10E94130160E08DE00E94F6
:101670001301659784F58091060190910701019708
:1016800051F50E94840461E08DE00E94130161E045
:1016900083E10E9413010E94620468EC70E080E024
:1016A00090E00E94DA010E9401056CE271E080E0A6
:1016B00090E00E94DA010E94840468EC70E080E00F
:1016C00090E00E94DA0160E083E10E94130160E093
:1016D0008DE00E94130180E090E0892B09F49FCDFA
:1016E0000E947602882309F49ACD0E94000094CDCE
:1016F000052E97FB1EF400940E948F0B57FD07D018
:101700000E94AA0B07FC03D04EF40C948F0B50954B
:101710004095309521953F4F4F4F5F4F08959095DD
:101720008095709561957F4F8F4F9F4F08950E94D0
:10173000CC0BA59F900DB49F900DA49F800D911D83
:1017400011240895B7FF0C94970B0E94970B821BEE
:10175000930B0895A1E21A2EAA1BBB1BFD010DC01D
:10176000AA1FBB1FEE1FFF1FA217B307E407F50751
:1017700020F0A21BB30BE40BF50B661F771F881F2D
:10178000991F1A9469F760957095809590959B01C3
:10179000AC01BD01CF010895A29FB001B39FC0016C
:1017A000A39F700D811D1124911DB29F700D811D8D
:1017B0001124911D0895991B79E004C0991F961773
:1017C00008F0961B881F7A95C9F78095089597FBB6
:1017D000072E16F4009407D077FD09D00E94FB0B6A
:1017E00007FC05D03EF4909581959F4F0895709524
:1017F00061957F4F0895AA1BBB1B51E107C0AA1F2B
:10180000BB1FA617B70710F0A61BB70B881F991FA1
:101810005A95A9F780959095BC01CD010895EE0FDA
:0E182000FF1F0590F491E02D0994F894FFCF7E
:10182E00FF005A005A00010064006400000000002E
:10183E00AC020C023902F9026A0248025C020D0A7D
:10184E0000536572766F004361720046616C636F80
:10185E006E20342E30202D20425420526561647942
:10186E00004D6F64653A2000414C4552543A204277
:10187E00494E2046554C4C210042696E20456D70F4
:0E188E0074696564202D205265616479000044
:00000001FF
